:02000002B0004C
:1040000000400B00FA740C000000060019000502C5
:084010000401A11800000000EA
:04401800844D0C00C7
:1040200081F0004102E000BF83F0004330B54FEA69
:1040300041044FEA430594EA050F08BF90EA020FD6
:104040001FBF54EA000C55EA020C7FEA645C7FEA69
:10405000655C00F0E2804FEA5454D4EB5555B8BF8C
:104060006D420CDD2C4480EA020281EA030382EAFD
:10407000000083EA010180EA020281EA0303362D8F
:1040800088BF30BD11F0004F4FEA01314FF4801C62
:104090004CEA113102D0404261EB410113F0004F74
:1040A0004FEA03334CEA133302D0524263EB43032B
:1040B00094EA050F00F0A780A4F10104D5F1200EC9
:1040C0000DDB02FA0EFC22FA05F2801841F1000124
:1040D00003FA0EF2801843FA05F359410EE0A5F1F8
:1040E00020050EF1200E012A03FA0EFC28BF4CF029
:1040F000020C43FA05F3C01851EBE37101F00045DF
:1041000007D54FF0000EDCF1000C7EEB00006EEBEB
:104110000101B1F5801F1BD3B1F5001F0CD3490875
:104120005FEA30004FEA3C0C04F101044FEA4452CC
:1041300012F5800F80F09A80BCF1004F08BF5FEA53
:10414000500C50F1000041EB045141EA050130BD33
:104150005FEA4C0C404141EB0101013C28BFB1F545
:10416000801FE9D291F0000F04BF01460020B1FA90
:1041700081F308BF2033A3F10B03B3F120020CDA63
:104180000C3208DD02F1140CC2F10C0201FA0CF041
:1041900021FA02F10CE002F11402D8BFC2F1200CA6
:1041A00001FA02F120FA0CFCDCBF41EA0C0190405C
:1041B000E41AA2BF01EB0451294330BD6FEA0404A5
:1041C0001F3C1CDA0C340EDC04F11404C4F1200290
:1041D00020FA04F001FA02F340EA030021FA04F3A2
:1041E00045EA030130BDC4F10C04C4F1200220FAF9
:1041F00002F001FA04F340EA0300294630BD21FA37
:1042000004F0294630BD94F0000F83F4801306BFFC
:1042100081F480110134013D4EE77FEA645C18BFF0
:104220007FEA655C29D094EA050F08BF90EA020F87
:1042300005D054EA000C04BF1946104630BD91EA7F
:10424000030F1EBF0021002030BD5FEA545C05D182
:104250004000494128BF41F0004130BD14F58004C1
:104260003CBF01F5801130BD01F0004545F0FE4135
:1042700041F470014FF0000030BD7FEA645C1ABF6A
:10428000194610467FEA655C1CBF0B46024650EAA1
:10429000013406BF52EA033591EA030F41F40021CD
:1042A00030BD00BF90F0000F04BF0021704730B553
:1042B0004FF4806404F132044FF000054FF0000128
:1042C00050E700BF90F0000F04BF0021704730B5E9
:1042D0004FF4806404F1320410F0004548BF4042BE
:1042E0004FF000013EE700BF42004FEAE2014FEA13
:1042F00031014FEA02701FBF12F07F4393F07F4FEE
:1043000081F06051704732F07F4208BF704793F0F0
:104310007F4F04BF41F40021704730B54FF4607403
:1043200001F0004521F000411CE700BF50EA010206
:1043300008BF704730B54FF000050AE050EA0102AF
:1043400008BF704730B511F0004502D5404261EB1F
:1043500041014FF4806404F132045FEA915C3FF460
:10436000D8AE4FF003025FEADC0C18BF03325FEAFD
:10437000DC0C18BF033202EBDC02C2F1200300FAAE
:1043800003FC20FA02F001FA03FE40EA0E0021FAD3
:1043900002F11444BDE600BF70B54FF0FF0C4CF4C1
:1043A000E06C1CEA11541DBF1CEA135594EA0C0F73
:1043B00095EA0C0F00F0DEF82C4481EA030621EAAE
:1043C0004C5123EA4C5350EA013518BF52EA0335E9
:1043D00041F4801143F4801338D0A0FB02CE4FF09B
:1043E0000005E1FB02E506F00042E0FB03E54FF0CB
:1043F0000006E1FB03569CF0000F18BF4EF0010EC3
:10440000A4F1FF04B6F5007F64F5407404D25FEABE
:104410004E0E6D4146EB060642EAC62141EA555171
:104420004FEAC52040EA5E504FEACE2EB4F1FD0CB3
:1044300088BFBCF5E06F1ED8BEF1004F08BF5FEA31
:10444000500E50F1000041EB045170BD06F00046E3
:1044500046EA010140EA020081EA0301B4EB5C0490
:10446000C2BFD4EB0C0541EA045170BD41F4801188
:104470004FF0000E013C00F3AB8014F1360FDEBFAD
:10448000002001F0004170BDC4F10004203C35DA89
:104490000C341BDC04F11404C4F1200500FA05F30C
:1044A00020FA04F001FA05F240EA020001F00042AD
:1044B00021F0004110EBD37021FA04F642EB060123
:1044C0005EEA430E08BF20EAD37070BDC4F10C044D
:1044D000C4F1200500FA04F320FA05F001FA04F211
:1044E00040EA020001F0004110EBD37041F10001FD
:1044F0005EEA430E08BF20EAD37070BDC4F1200508
:1045000000FA05F24EEA020E20FA04F301FA05F26F
:1045100043EA020321FA04F001F0004121FA04F217
:1045200020EA020000EBD3705EEA430E08BF20EAE7
:10453000D37070BD94F0000F0FD101F00046400021
:1045400041EB010111F4801F08BF013CF7D041EAA3
:10455000060195F0000F18BF704703F000465200A7
:1045600043EB030313F4801F08BF013DF7D043EA78
:104570000603704794EA0C0F0CEA135518BF95EA2E
:104580000C0F0CD050EA410618BF52EA4306D1D1B5
:1045900081EA030101F000414FF0000070BD50EAD4
:1045A000410606BF1046194652EA430619D094EA5E
:1045B0000C0F02D150EA013613D195EA0C0F05D148
:1045C00052EA03361CBF104619460AD181EA03019C
:1045D00001F0004141F0FE4141F470014FF0000054
:1045E00070BD41F0FE4141F4780170BD70B54FF0EF
:1045F000FF0C4CF4E06C1CEA11541DBF1CEA13556F
:1046000094EA0C0F95EA0C0F00F0A7F8A4EB050450
:1046100081EA030E52EA03354FEA013100F0888047
:104620004FEA03334FF0805545EA131343EA126310
:104630004FEA022245EA111545EA10654FEA0026C5
:104640000EF000419D4208BF964244F1FD0404F57E
:10465000407402D25B084FEA3202B61A65EB0305DA
:104660005B084FEA32024FF480104FF4002CB6EB97
:10467000020E75EB030E22BFB61A754640EA0C0017
:104680005B084FEA3202B6EB020E75EB030E22BF57
:10469000B61A754640EA5C005B084FEA3202B6EB98
:1046A000020E75EB030E22BFB61A754640EA9C0057
:1046B0005B084FEA3202B6EB020E75EB030E22BF27
:1046C000B61A754640EADC0055EA060E18D04FEAE5
:1046D000051545EA16754FEA06164FEAC30343EA85
:1046E00052734FEAC2025FEA1C1CC0D111F4801F52
:1046F0000BD141EA00014FF000004FF0004CB6E74B
:1047000011F4801F04BF01430020B4F1FD0C88BFE9
:10471000BCF5E06F3FF6AFAEB5EB030C04BFB6EBF4
:10472000020C5FEA500C50F1000041EB045170BDE7
:104730000EF0004E4EEA113114EB5C04C2BFD4EB14
:104740000C0541EA045170BD41F480114FF0000E98
:10475000013C90E645EA060E8DE60CEA135594EA14
:104760000C0F08BF95EA0C0F3FF43BAF94EA0C0F17
:104770000AD150EA01347FF434AF95EA0C0F7FF48C
:1047800025AF104619462CE795EA0C0F06D152EAE0
:1047900003353FF4FDAE1046194622E750EA4106C4
:1047A00018BF52EA43067FF4C5AE50EA41047FF4D5
:1047B0000DAF52EA43057FF4EBAE12E74FF0FF3C3A
:1047C00006E000BF4FF0010C02E000BF4FF0010C0B
:1047D0004DF804CD4FEA410C7FEA6C5C4FEA430C84
:1047E00018BF7FEA6C5C1BD001B050EA410C0CBFD3
:1047F00052EA430C91EA030F02BF90EA020F002035
:10480000704710F1000F91EA030F58BF994208BF9B
:1048100090422CBFD8176FEAE37040F00100704758
:104820004FEA410C7FEA6C5C02D150EA013C07D1AF
:104830004FEA430C7FEA6C5CD6D152EA033CD3D0FA
:104840005DF8040B704700BF8446104662468C46F4
:104850001946634600E000BF01B5FFF7B7FF002827
:1048600048BF10F1000F01BD4DF808EDFFF7F4FF50
:104870000CBF012000205DF808FB00BF4DF808EDDB
:10488000FFF7EAFF34BF012000205DF808FB00BFFE
:104890004DF808EDFFF7E0FF94BF012000205DF820
:1048A00008FB00BF4DF808EDFFF7CEFF94BF0120D5
:1048B00000205DF808FB00BF4DF808EDFFF7C4FFCE
:1048C00034BF012000205DF808FB00BF4FEA410C17
:1048D0007FEA6C5C02D150EA013C0AD14FEA430CFA
:1048E0007FEA6C5C02D152EA033C02D14FF0000037
:1048F00070474FF0010070474FEA410212F5001275
:1049000015D211D56FF47873B3EB625212D94FEA16
:10491000C12343F0004343EA505311F0004F23FA00
:1049200002F018BF404270474FF00000704750EA55
:10493000013005D111F0004008BF6FF00040704712
:104940004FF00000704700BF4A0011D212F500126C
:1049500011D20DD56FF47873B3EB62520ED44FEAD7
:10496000C12343F0004343EA505323FA02F0704757
:104970004FF00000704750EA013002D14FF0FF3095
:1049800070474FF0000070474FEA4102B2F1E04338
:1049900024BFB3F5001CDCF1FE5C0DD901F0004C26
:1049A0004FEAC0024CEA5070B2F1004F40EB830076
:1049B00008BF20F00100704711F0804F21D113F1A2
:1049C0003872BCBF01F00040704741F480114FEADB
:1049D0005252C2F11802C2F1200C10FA0CF320FA64
:1049E00002F018BF40F001004FEAC1234FEAD32381
:1049F00003FA0CFC40EA0C0023FA02F34FEA4303EB
:104A0000CCE77FEA625307D150EA01331EBF4FF073
:104A1000FE4040F44000704701F0004040F0FE408E
:104A200040F40000704700BF53B94AB9002908BFDD
:104A300000281CBF4FF0FF314FF0FF3000F092B95B
:104A4000ADF1080C6DE904CE00F024F8DDF804E0C7
:104A5000DDE9022304B07047D0B50C4B00220646B6
:104A60000F46FFF799FCFFF76FFF0446FFF71AFCAC
:104A7000074B0022FFF790FC02460B4630463946B2
:104A8000FFF7D2FAFFF760FF2146D0BD0000F03DEE
:104A90000000F0412DE9F047089D04468E46002BAA
:104AA0004DD18A42944669D9B2FA82F252B101FAE2
:104AB00002F3C2F1200120FA01F10CFA02FC41EAF2
:104AC000030E94404FEA1C48210CBEFBF8F61FFA77
:104AD0008CF708FB16E341EA034306FB07F1994212
:104AE0000AD91CEB030306F1FF3080F01F819942C5
:104AF00040F21C81023E63445B1AA4B2B3FBF8F09F
:104B000008FB103344EA034400FB07F7A7420AD925
:104B10001CEB040400F1FF3380F00A81A74240F24D
:104B200007816444023840EA0640E41B00261DB1B8
:104B3000D4400023C5E900433146BDE8F0878B42ED
:104B400009D9002D00F0EF800026C5E900013046AC
:104B50003146BDE8F087B3FA83F6002E4AD18B4286
:104B600002D3824200F2F980841A61EB0303012030
:104B70009E46002DE0D0C5E9004EDDE702B9FFDE1C
:104B8000B2FA82F2002A40F09280A1EB0C014FEAC7
:104B90001C471FFA8CFE0126200CB1FBF7F307FB24
:104BA000131140EA01410EFB03F0884208D91CEBC7
:104BB000010103F1FF3802D2884200F2CB80434664
:104BC000091AA4B2B1FBF7F007FB101144EA014443
:104BD0000EFB00FEA64508D91CEB040400F1FF31D2
:104BE00002D2A64500F2BB800846A4EB0E0440EAC0
:104BF00003409CE7C6F12007B34022FA07FC4CEAC9
:104C0000030C20FA07F401FA06F31C43F9404FEABB
:104C10001C4900FA06F3B1FBF9F8200C1FFA8CFED0
:104C200009FB181140EA014108FB0EF0884202FA24
:104C300006F20BD91CEB010108F1FF3A80F08880E5
:104C4000884240F28580A8F102086144091AA4B2A2
:104C5000B1FBF9F009FB101144EA014100FB0EFE23
:104C60008E4508D91CEB010100F1FF346CD28E4552
:104C70006AD90238614440EA0840A0FB0294A1EBE3
:104C80000E01A142C846A64656D353D05DB1B3EB40
:104C9000080261EB0E0101FA07F722FA06F3F14070
:104CA0001F43C5E9007100263146BDE8F087C2F117
:104CB0002003D8400CFA02FC21FA03F3914001438F
:104CC0004FEA1C471FFA8CFEB3FBF7F007FB1036C8
:104CD0000B0C43EA064300FB0EF69E4204FA02F474
:104CE00008D91CEB030300F1FF382FD29E422DD9C7
:104CF000023863449B1B89B2B3FBF7F607FB1633FC
:104D000041EA034106FB0EF38B4208D91CEB01017B
:104D100006F1FF3816D28B4214D9023E6144C91AFB
:104D200046EA004638E72E46284605E70646E3E60B
:104D30001846F8E64B45A9D2B9EB020864EB0C0E15
:104D40000138A3E74646EAE7204694E74046D1E724
:104D5000D0467BE7023B614432E7304609E76444D2
:104D6000023842E7704700BF10F8012B11F8013BF1
:104D7000012A28BF9A42F7D0D01A7047034613F889
:104D8000012B002AFBD1181A0138704709480A493B
:104D9000884208B505D0094A824202D0121A0FF0A3
:104DA0007FFE0748074A0021121A0FF0A1FE0148B2
:104DB00008BD00BFA4D3032024740C0038D4032002
:104DC00038D40320F8DF032070B5074E074C0CF0F1
:104DD000CDFFA41BA4080025AC4200D170BD56F83D
:104DE000043B98470135F7E7A0730C00F8730C00FB
:104DF00000F0E6B808B500F0F0F8BDE808400CF0A7
:104E00006DBF0AF097BE0AF095BE0AF09BBE000087
:104E100000B58DB02C22002101A874460FF068FE69
:104E2000054B0193054B029304947B46002101A896
:104E300003930AF05DFDFEE72C000C00984D0C007A
:104E40007047704710B5012303748368044643B16B
:104E5000C0689847012363740020BDE810400AF041
:104E600067BB00680028F5D083680BB90EF036FCEC
:104E7000C368EEE7012A02D1016000207047022AD0
:104E800004BF0B680360F8E7036818470A4B10B5C6
:104E9000044603600BF050FE21460CF09AF80DF02A
:104EA0006BFB0DF05DFB2046044B40F8043B0BF020
:104EB00019FF204610BD00BFEC4D0C00D44D0C0076
:104EC00010B50446FFF7E2FF20462421FFF79DFFBF
:104ED000204610BD10B58368044613B10322014675
:104EE0009847204610BD38B50568044635B12846B8
:104EF000FFF7F0FF10212846FFF787FF2046142117
:104F0000BDE83840FFF781BF2DE9F34104460E4666
:104F10001420164990461F460EF0DCFB30B10025E8
:104F2000C0E90055C0E9025505744574206098B188
:104F3000099B9DF82020C0E902873146CDE9000396
:104F40000B4B04300AF08CFA30B923681B7C4BB948
:104F500001200AF03DFAF8E720680023236008B139
:104F6000FFF7C1FF204602B0BDE8F081F8700C00E9
:104F7000454E0B0038B5064D2B683BB94420FFF772
:104F800040FF044608B101F015FA2C60286838BDCE
:104F9000BCD603201FB5FFF7EDFF0849044668465D
:104FA0000BF089F96946204601F082FA68460BF059
:104FB00037F904B0BDE810400AF0CCBFAD4D0C008D
:104FC00008B50DF0D9FA4FF416510DF0C5FAFFF7F8
:104FD000D1FFBDE8084002F031BB08B5FFF7CAFFBA
:104FE000BDE8084002F0BABC70B5D0E90053142601
:104FF000044606FB0356AE4204D028460BF010F9D7
:105000001435F8E720680AF09DFD204670BD8842FF
:10501000F8B504460D46164616D9904215D2A2F1AF
:105020001406751AA1F114072C44B7421CD02CB1F8
:10503000314620460BF071F9337C237430460BF077
:10504000EFF8143E143CF0E70ED0B5420CD02CB172
:10505000294620460BF061F92B7C237428460BF07F
:10506000DFF814351434F0E7F8BD2DE9F0410023E2
:10507000C0E9003383604F689F4204460E4623DD3B
:105080004FF0140808FB07F00AF054FD0546D8B1AC
:10509000D4E9001208FB0212FFF7B9FF20680AF0FA
:1050A00051FD2560A760D6E9007308FB0378B84579
:1050B00008D0394628460BF04AF93B7C2B7414374C
:1050C0001435F4E7736863602046BDE8F0810000A2
:1050D00070B5002190B001200AF02CFC364B374A05
:1050E0009A600025C3E9005502200AF013FC01F084
:1050F00097F9CDE9035505950DF03EFA03A906464B
:1051000006A82F4CFFF7B1FF06A909A8FFF7ADFFCE
:105110002C4B236009A90CA8FFF7A7FF0CAA1E219E
:10512000201D0CF039F80CA8FFF75EFF09A8FFF767
:105130005BFF254B2360266206A8FFF755FF234B34
:1051400023600DF019FA4FF416510DF005FA0BF02B
:10515000F3FC21460BF0F6FE03A8FFF745FF1C4BBE
:105160000C931C4B1C4C0F931C4B0E931C4B23603D
:1051700002220CA9E560201DFFF77CFE0F9B236136
:105180000E9BE3600AF034F9164B18600420FFF719
:1051900038FE054648B109234FF40072CDE90032CC
:1051A0001149124A2346FFF7AFFE65610CA8FFF7CD
:1051B00091FE10B070BD00BF5CD403200000FFFF63
:1051C00038D40320D44D0C005C6E0C00EC4D0C0068
:1051D000954F0B00894E0B0068D40320754E0B00D1
:1051E000C0270900D4DF0320C34D0C004D360C004E
:1051F0000EB400B58CB00DAA4FF0200C52F8041B71
:105200000392CDE900120023016804AA1E20CDE913
:1052100004C30AF055FB0CB05DF804EB03B0704713
:1052200038B50C460021054608460AF031F9002140
:1052300001200AF02DF904F138010FC985E80F00AB
:10524000284638BD1FB501466846FFF7E9FF6846A6
:1052500009F022FC05B05DF804FB1FB50146684665
:10526000FFF7DEFF684609F00BFC05B05DF804FBB4
:105270001FB501466846FFF7D3FF684609F0F4FB07
:105280006423B0FBF3F202FB1300C0B205B05DF87B
:1052900004FB38B50C460021054608460AF0F8F82C
:1052A000002101200AF0F4F804F148010FC985E853
:1052B0000F00284638BD1FB501466846FFF7E9FFD5
:1052C000684609F00BFC05B05DF804FB1FB501460C
:1052D0006846FFF7DEFF684609F0F2FB05B05DF8AF
:1052E00004FB1FB501466846FFF7D3FF684609F087
:1052F000DDFB05B05DF804FB38B5064D2B683BB906
:105300000520FFF77EFD044608B104F019FE2C606D
:10531000286838BDF0DA03200022027070470000D0
:1053200010B50378044603BBFFF7E6FF012104F044
:105330006FFF4FF4FA600CF0F7FA0EF03FF94FF4FC
:1053400016510DF013FC0EF039F90146084809F02A
:10535000A9F8074809F032F9054809F087F8012350
:10536000044905482370FFF743FF012010BD00BF2B
:1053700084D40320FC4D0C00D0DE032010B503784C
:10538000044683B1FFF7B8FF002104F0C9FFFFF71F
:10539000B3FF002104F0B2FFFFF7AEFF002104F0DD
:1053A00037FF00232370012010BD00002DE9F043DA
:1053B0000B7891B00446002B54D02B4D2B7A23B997
:1053C0002A4920460AF077FF48E00AF011F8EB6B13
:1053D000C01A42F210739842F2D805F1080009F0A1
:1053E000D7FA05F1080059EC108B09F0F5FA494697
:1053F000404657EC106BFFF7C7FA062100EE100A83
:1054000004A80AF0ECFF04A908A80AF0A0FF1849B4
:1054100008A80BF03EF8394605463046FFF7B4FAC7
:10542000062100EE100A0CA80AF0D9FF0CA92846A4
:105430000BF023F8014668460AF089FF0CA80AF031
:10544000EFFE08A80AF0ECFE04A80AF0E9FE69469F
:1054500020460AF062FF68460AF0E2FE204611B0DC
:10546000BDE8F0830149ADE784D40320A7610C00B7
:10547000244E0C0070B50B7888B0054663B3184C09
:10548000237A33B309F0B4FFE36BC01A267A1549C7
:10549000154BD4F8A0210390002E08BF0B46002125
:1054A00084F8A110D4F8A8100092CDE90131D4F805
:1054B0009821D4F8A4310D4904A80BF09BF804A955
:1054C00028460AF02AFF04A80AF0AAFE284608B0D7
:1054D00070BD4FF0FF30D9E705490AF0ECFEF5E763
:1054E00084D403202A4E0C00264E0C002D4E0C00B6
:1054F000654E0C00F0B52049204889B0FFF778FED2
:105500001F4968460AF0D7FE00250EF057F80368D9
:105510001B699847B8B91B4F184E0024029BA34241
:1055200022461ED95034A342A8BF2346694604A888
:105530000BF00AF83046049A3946FFF759FE04A8E2
:105540000AF06EFEEAE70EF039F803685B699847E7
:105550000135C1B268460AF083FFB5F5FA7FD4D1B0
:10556000D9E7094905482A46FFF742FE68460AF08E
:1055700057FE09B0F0BD00BF6D4E0C00D0DE032019
:10558000036B0C00505D0C00824E0C0030B50B78A4
:1055900089B005466BB31C4C6068FFF769FE1E308E
:1055A000ADF80A006068FFF758FE8DF809006068E2
:1055B000FFF748FE8DF808006068FFF792FE8DF84F
:1055C00006006068FFF782FE8DF805006068FFF74F
:1055D00072FE8DF8040001A805F066FF0A2203A9F7
:1055E0000AF0A8FD03A928460AF065FE284609B07E
:1055F00030BD1E22ADF80830ADF80A20ADF80430F9
:105600008DF80630E7E700BF84D40320014808F096
:10561000CBBF00BF84D40320014B00221A60704727
:1056200078D60320436913B183690C30184770475B
:1056300013B500210446084609F02AFF002320463E
:1056400001A9019309F03CFF019C0CB101232371D6
:105650000021012009F01CFF2CB1236820469B6823
:1056600098470023237102B010BD000038B5114CDB
:105670002368013323600CF07FFF0F490BF04AF8D9
:105680000CF07AFF2468002C054610DA2D210BF06F
:1056900045F861420A2228460BF05FF828460BF0D5
:1056A00044F8BDE83840002112200DF017BF214614
:1056B000F0E700BF78D603209D4E0C000EB403B572
:1056C00003AB012153F8042B01930BF064F802B0F3
:1056D0005DF804EB03B0704737B504468068C8B185
:1056E00000256FF00043CDE9003502212B462A4604
:1056F00009F0EEFEA068294609F022FF237903F0A5
:10570000FF0513B109F0B4FEF8E7A068294609F0D7
:10571000CFFEA56003B030BD38B50546054B45F852
:105720000C3B0446FFF7D8FF2846FFF7D3FB204683
:1057300038BD00BFCC500C0010B50446FFF7ECFF9D
:1057400020461C21FFF761FB204610BD38B5064DF1
:105750002B683BB90420FFF754FB044608B102F064
:105760000BFD2C60286838BD3CD703200022027056
:10577000427070472DE9F043674FDFF8E081DFF8B2
:10578000E09189B0064601250CF0F6FE0A232A4670
:105790003946FFF793FF0DF079FF0DF097FA0028D7
:1057A00050D10CF0E9FE5D490AF0CBFF0DF06EFF21
:1057B0000DF044FA0DF06AFF59490DF03BFAC8208C
:1057C0000CF0B2F80DF062FF0DF080FA002839D12C
:1057D0000CF0D2FE53490AF0B4FF01350B2DD3D1A2
:1057E0000CF0CAFE50490AF0ACFF0CF0C5FE4F4960
:1057F0004F4D00240AF0A5FF4E4900944FF0FF33AF
:10580000022212200DF0B8F8A86830B1CDE90044AA
:1058100023462246022109F05BFEA86840B100231E
:105820006FF00042CDE9002319461A4609F050FEF8
:105830000CF0A2FE40490AF084FF0120307009B04C
:10584000BDE8F083002398F8001099ED000A3B486A
:105850001A4605F035FC0446B8BB0CF08DFE3849FD
:105860000AF06FFF01220A23BFEE000ACDE90442CD
:10587000CDE90242CDE900443221304805F0A8FCD0
:105880000F220DF11F012D488DF81F4005F0ACF9D6
:105890000CF072FE2B490AF03DFF0CF06DFE9DF8F6
:1058A0001F10044610220AF058FF20460AF03DFF60
:1058B0009DF81F30352B04D10CF05EFE22490AF012
:1058C00040FF0CF059FE214992E70CF055FE2049AB
:1058D0002A46FFF7F3FE0A2D3FF47FAF0CF04CFE93
:1058E0001C490AF02EFF0DF0D1FE0DF0A7F90DF0C6
:1058F000CDFE0B490DF09EF964200CF015F8012D3A
:105900003FF46BAF0CF038FE13490AF01AFF4FF466
:10591000FA600CF009F860E7B24E0C00DC4E0C00A7
:10592000A0860100004F0C00974F0C00CB4F0C00DD
:1059300080D6032019560B001A500C009CD6032069
:105940001B4F0C00394F0C00EB4F0C000E500C009D
:10595000464F0C00614F0C00784F0C00A4D303207D
:10596000A8D3032010B504460348FFF7B5FE002373
:105970002370012010BD00BF80D60320F0B52DEDAF
:10598000028B634D2B68B3F5616F93B040F3B58024
:10599000FFF7DCFE03781BB9FFF7D8FE02F012FC1C
:1059A000FFF7D4FE014605A802F0C2FC59490DA834
:1059B0000AF081FC0DA905A80AF0ABFD04460DA86C
:1059C0000AF02EFC002C40F09180FFF7BFFE02F0A1
:1059D00017FCDFED517A60EE277AB0EE408AFCEEDC
:1059E000E77A17EE903A9EB20BF03AFF08B10BF04F
:1059F00054FF1422002104460DA82F680FF078F8F8
:105A00000DF02CFE0DA91422202009F001FD434BBE
:105A10000D9AADF838609A420BBF109B0D9301337D
:105A2000012310930F9411970DF018FE14220DA965
:105A3000202009F0F5FC0AF04DF800283FD018EEC0
:105A4000100A0294FEF750FCCDE9000109A82A686B
:105A500033490AF0CFFD099C324B20461E780CB129
:105A6000FFF78CF900233C22CDE900322E498DF856
:105A70000860034622460DA80CF03EFB0E9C7CB14C
:105A80006368013B63605BB9236820469B68984765
:105A9000A368013BA3601BB923682046DB689847D5
:105AA000142200210DA80FF023F80DF0D7FD2020BF
:105AB00014220DA909F0B4FC09A80AF0B1FB2A6868
:105AC0001A4D1B491B481E23FFF792FB2B683BB95D
:105AD0001420FFF796F9044608B100F0B9F82C60DD
:105AE000012328681A461E2100F0F6F805A80AF0DE
:105AF00097FB13B0BDEC028BF0BDB3F5D27FF8DDA0
:105B00000CF03AFD0C490AF01CFE00232B60F0E774
:105B100078D60320C3650C0000007A4454415453E6
:105B200028500C0074D603205B500C00B4D6032020
:105B300066500C00D0DE03209F500C00014B18680B
:105B4000704700BF78D603204170704770B51A4B7C
:105B50001A48002488B01C700E2105F040F8184B3C
:105B6000049304AD174B184A1A6095E8030003F13B
:105B70000C0202AE86E8030092E8030085E8030009
:105B800096E8030082E80300104A5A619A69079276
:105B90000F4A9A611C719C600E4A06944FF47A7108
:105BA00003F10800CDE9004409F07AFC2846FFF72C
:105BB00091F908B070BD00BF74D603209CD60320B5
:105BC0006D560B0080D60320CC500C00754E0B0098
:105BD000894E0B0031560B0021B18B88834201D0D6
:105BE0008968F9E708467047F8B5037D05460F4612
:105BF0003BB103680420D968FFF7EEFF064608B101
:105C0000C760F8BD0A4910200DF064FD044660B17C
:105C1000102231460EF06CFF064B23600423A38054
:105C20002B692C61C4E90237EBE72875E9E700BF6F
:105C3000F8700C001000030038B50446006928B164
:105C400085680C21FFF7E1F82846F8E7204638BDC3
:105C500070B51D4E336804463BB90520FFF7D1F8F7
:105C6000054608B104F06CF935603368174E2360BF
:105C700033683BB92020FFF7C4F8054608B103F0AC
:105C800091FB35603368124E636033683BB968201E
:105C9000FFF7B7F8054608B102F08AFC35603368B3
:105CA000A3600C4EFFF752FD3368E0603BB9012062
:105CB000FFF7A7F8054608B1FFF72EFB35603368FC
:105CC0002361204670BD00BFF0DA032088D703208F
:105CD00078D7032080D40320F0B504468BB0A248C7
:105CE0000D46A2491F461646FFF782FA64200BF0C4
:105CF0001BFE2069FFF742FBE06802F043FA606890
:105D000003F084FC606803F0B5FF606803F06AFC90
:105D1000002F40F092803946206804F04BFA20684A
:105D2000002104F0BDFA2068002104F091FAFFF789
:105D300021F990F840308BB18D498B48FFF758FA24
:105D4000FFF718F98B49074604A80AF0B4FA384659
:105D500004A900F0ADFB04A80AF062FA64200BF07D
:105D6000E3FD05AB04930023CDE90633102208932D
:105D70000123ADF814209E424FF003028DF8243029
:105D8000ADF816208DF8183059D0022E5AD0002EBA
:105D90005AD14FF47A71A5FB011504A8FFF724FF2F
:105DA0009DF8243063B1049BD9680120FFF714FFEC
:105DB000054600284CD08389122B47D100238373DA
:105DC0009DF8243083B1049BD9680E20FFF704FFAF
:105DD0000546002854D0037B042B4FD1C389012BE7
:105DE00002D043F00103C381684604A90AF0B6F863
:105DF000009808B109F0A6FEFFF7BCF890F8403013
:105E0000002B64D05C495848FFF7F2F9002009F0F4
:105E100017FB42F210760546002009F011FB401BEB
:105E200061F10001B04271F1000340D209F052FE6D
:105E300000283CD109F03EFEEEE701216CE74EF66A
:105E40006021A8E74D49A6E74D49A6E78168ACE780
:105E50004C4910200DF03EFC0646002800F08180E1
:105E6000102229460EF044FE474B33600123B380D5
:105E7000089BB3601223B3810896A1E78168A4E769
:105E8000404914200DF026FC0646002866D0142256
:105E900029460EF02DFE3C4B33600E23B380089B49
:105EA000B360042333730123F38108969CE709F060
:105EB00011FEFFF75FF83549054668460AF0FBF921
:105EC0002846694600F0F4FA68460AF0A9F94FF44A
:105ED0007A700BF029FD0121206804F06BF920692C
:105EE000FFF71EFAE06802F0B9FAFFF72FFC02F0A4
:105EF00087F9DFED277A20EE270ABCEEC00A10EE04
:105F0000103A9EB20BF0ACFC08B10BF0C6FC054693
:105F1000FFF730F82A46314600F08CFA606803F04B
:105F200061FD606803F0AAFC606803F07DFD41F24A
:105F300088300BF0F9FC0121206804F089F941F266
:105F400088300BF0F1FC606803F068FE606803F0D5
:105F5000C3FA04A8FFF770FE0BB0F0BD8DF8245013
:105F600042E78DF824502BE7D0DE0320D8500C00F8
:105F7000F0500C0005510C0012510C0080EE360060
:105F8000002E9302F8700C001000030026510C0044
:105F900000007A44002302220C21FFF79DBE00007E
:105FA00013B50B4C2178BFF35B8F11F001010BD1BE
:105FB0002046019109F00EFE019928B1054809F02B
:105FC0006FFE204609F00EFE024802B010BD00BF71
:105FD000A8D60320ACD60320F0B504468BB05B48AE
:105FE0000D465B491646FFF703F964200BF09CFC55
:105FF000A06802F0FDFAFFF7D3FF09F081FEFFF77A
:10600000CFFF09F06BFE4FF4FA700BF08DFC2069A6
:10601000FFF7B4F9E06802F0B5F8606803F0F6FA4B
:106020002068002104F0C6F82068002104F038F947
:106030000021206804F00CF964200BF075FC454940
:106040004248FFF7D5F8FEF795FF90F840306BB166
:10605000FEF790FF4049074604A80AF02CF938469D
:1060600004A900F025FA04A80AF0DAF864200BF07D
:106070005BFC05AB394A04930023CDE90523CDE948
:10608000073301239E428DF824304FF0030305D0DF
:10609000022E55D132498DF8183003E08DF81830B2
:1060A0004EF66021A5FB011504A8FFF79DFD68468B
:1060B00004A909F053FF009808B109F043FD2949EC
:1060C0002248FFF795F8FEF755FF90F840306BB186
:1060D000FEF750FF2449054668460AF0ECF82846CA
:1060E000694600F0E5F968460AF09AF864200BF07A
:1060F0001BFC606803F092FD0121206804F05AF84F
:106100002069FFF70DF9E06802F0A8F9606803F074
:1061100069FC606803F0B2FB606803F085FC41F243
:1061200088300BF001FC0121206804F091F841F265
:1061300088300BF0F9FB04A8FFF77EFD0BB0F0BD33
:106140008DF818304FF47A71ACE700BFD0DE032031
:106150002E510C004D510C0069510C001000030031
:1061600080EE360079510C0094510C00014B012255
:106170001A707047D5D60320014B01221A70704760
:10618000D6D60320014B01221A707047D4D60320C3
:106190001FB51022002168460EF0AAFC0DF05EFA31
:1061A00010226946002009F03BF905B05DF804FBB8
:1061B00070B50D4B86B01E780546144692B1104658
:1061C0000591FEF7DBFD05998DF8086000233C2260
:1061D000CDE900320346224628460BF08DFF2846C3
:1061E00006B070BD1046EFE7B8D6032070B50D4B72
:1061F00086B01E780546144692B110460591FEF70A
:10620000BDFD05998DF8086000233C22CDE90032E0
:106210000346224628460BF06FFF284606B070BDA5
:106220001046EFE7B8D6032037B5044680680D4620
:1062300030B10023CDE900331A46022109F048F9B4
:10624000A06830B10023CDE900531A46194609F081
:106250003FF903B030BD0000F0B58C46002514496D
:10626000057104468560016092E8030085B002AFC5
:1062700004F10C0687E8030096E8030082E80300B7
:1062800097E8030086E803009168A0696161D1681E
:106290009560D060A161CDE90035064A234661468C
:1062A00004F1080009F0FCF8204605B0F0BD00BF7D
:1062B000CC500C0031560B000EB400B58CB00DAABA
:1062C0004FF0200C52F8041B0392CDE9001200237A
:1062D000016804AA2820CDE904C309F0F1FA0CB042
:1062E0005DF804EB03B0704738B5064D2B683BB939
:1062F0000120FEF786FD044608B1FFF70DF82C607B
:10630000286838BD80D4032038B5064D2B683BB9CA
:106310006820FEF776FD044608B102F049F92C60CA
:10632000286838BD78D7032038B5064D2B683BB9AF
:106330002020FEF766FD044608B103F033F82C6018
:10634000286838BD88D7032038B5064D2B683BB97F
:106350000220FEF756FD044608B1FFF707FA2C604D
:10636000286838BD7CD6032038B5064D2B683BB96C
:106370001420FEF746FD044608B1FFF769FC2C60C7
:10638000286838BDB4D6032008B505490548FEF78E
:106390002FFF054A054906480BF084FD012008BD82
:1063A000AA510C00D0DE0320B6510C00F1640B00A2
:1063B000791E0C0070B50446FEF79EFF2060FFF7C3
:1063C000B3FF6060FFF7A0FFA060FFF7BFF9E060D8
:1063D000FFF78AFF104E2061FFF7B6FF3368606158
:1063E0003BB91020FEF70DFD054608B103F09AFCFD
:1063F00035603368A361094904F11C0009F05BFFB3
:10640000064904F12C0009F056FF0023E363012341
:1064100084F84030204670BDECDA0320AA610C00FD
:1064200008B502490248FEF7E3FE08BDBA510C0068
:10643000D0DE032030B585B00D4614460021102271
:1064400068460EF055FB0DF009F969461022402010
:1064500008F0DEFF0A4B009AADF804509A420BBFD9
:10646000039B009301330123039302940DF0F6F88C
:1064700010226946402008F0D3FF05B030BD00BFB0
:10648000454B415738B5046805467CB16368013B0C
:1064900063605BB9236820469B689847A368013B0B
:1064A000A3601BB923682046DB689847284638BD9F
:1064B00030B585B0856868460C4609F048FF6B46E4
:1064C00002220021284602F065FA684609F0A8FE7B
:1064D00009F000FB38B1684622680449FFF768FEFE
:1064E00001A8FFF7CFFF05B030BD00BFC2510C00BF
:1064F0002DE9F0432C21BBB004460AF021F8A9494C
:10650000054606A809F0D7FEA6490AA809F0D3FE59
:10651000A4490EA809F0CFFEA24912A809F0CBFEAB
:106520006B1C3ED1214606A809F002FF9E4936A801
:1065300009F0C1FE06A936A809F09FFF9B4909F0A2
:10654000A8FF0AA909F099FF984909F0A2FF0EA92E
:1065500009F093FF954909F09CFF12A909F08DFFFE
:1065600001689348FEF744FE36A809F059FE9149A8
:1065700006A809F0A3FF00286DD1FFF7C5FE02F0C1
:106580009DFC12A809F04CFE0EA809F049FE0AA8CD
:1065900009F046FE06A809F043FE01203BB0BDE825
:1065A000F083002DC2DD05F101094A462C21204669
:1065B00009F0B8FF00F10108074642462C212046A9
:1065C00009F0B0FF2B4600222146064636A809F006
:1065D000BBFF36A906A809F0C5FE36A809F020FEC3
:1065E0003B464A46214636A809F0AEFF36A90AA81E
:1065F00009F0B8FE36A809F013FE6A490EA809F0A2
:10660000C1FE684912A809F0BDFE002F8EDD002EE4
:1066100019DD33464246214636A809F095FF36A9D2
:106620000EA809F09FFE36A809F0FAFD214636A80B
:10663000721C09F0A9FF36A912A809F093FE36A82A
:1066400009F0EEFD72E7214636A8424609F09CFFAC
:1066500036A90EA8F1E7584936A809F02CFE36A94C
:1066600006A809F056FF044636A809F0D9FD5CB12A
:1066700006A9052236A809F087FFFFF745FE3699DF
:1066800002F0C8FC36A8EFE24C4906A809F016FF54
:1066900010B909F05FFC74E7494906A809F00EFF3C
:1066A000A8B948494248FEF7A3FD09F013FA38B1EA
:1066B00036A8454A4549FFF799FD37A8FFF7E2FE9E
:1066C000C8200BF031F9002009F029FC59E74049B6
:1066D00006A809F0F3FE20B9FFF746FEFFF75AFCC3
:1066E0004FE73C4906A809F0E9FE78BB3A490EA8F5
:1066F00009F0E4FE044658B9FFF736FE05460AA83D
:1067000009F072FF2246C1B22846FFF765FC38E760
:1067100032490EA809F0D2FE48B9FFF725FE04461B
:106720000AA809F061FF0122C1B22046EDE72C4919
:106730000EA809F0C3FE00287FF423AFFFF714FE74
:1067400004460AA809F050FF0222EDE7254906A8F1
:1067500009F0B4FE002840F0DE8023490AA809F0C1
:10676000ADFE00287FD121490EA809F0A7FE002820
:1067700044D11F490E48FEF73BFDFFF7C5FD4FF022
:10678000FF3102F0B9FC09F0A5F900283FF4F9AE99
:10679000184A194936A8FFF729FD37A8FFF772FEF6
:1067A000EFE600BFAA610C00C6510C00244E0C009D
:1067B000D0DE0320D1510C00D6510C00DC510C006E
:1067C000E3510C00E7510C00F9510C0002520C008F
:1067D00006520C000B520C0015520C001D520C00FE
:1067E00025520C002B520C002E520C0033520C0080
:1067F00037520C004E520C0065520C0098499948D3
:10680000FEF7F6FCFFF780FD04460EA809F0ECFE4B
:106810000146204602F070FC09F05CF900283FF4C4
:10682000B0AE914936A809F046FD0EA809F0DCFE8D
:106830000A22014632A809F0B7FD32A936A809F0AC
:106840001CFE8A4909F025FE894902682EA8FFF737
:10685000AFFC2FA8FFF716FE32A809F0E1FC36A81E
:1068600009F0DEFC8DE683490AA809F027FED0B9BD
:10687000FFF74AFD02F0FCF87F49024636A809F00E
:10688000B9FE36997748FEF7B3FC09F023F90028E2
:106890003FF4F8AE369A794932A8FFF789FC33A85D
:1068A000FFF7F0FDEEE676490AA809F007FE88B981
:1068B000FFF72AFD014636A802F01EF9369969480D
:1068C000FEF796FC09F006F900283FF4DBAE369A95
:1068D0006C49E1E76C490AA809F0F0FD20B9FFF71F
:1068E00013FD01F099FFE3E768490AA809F0E6FD06
:1068F00000287FF446AEFFF707FD02F077FA6449FF
:106900005848FEF775FC09F0E5F800283FF439AE69
:10691000604A5F493EE7604906A809F0CFFD38BBF1
:106920005E490AA809F0CAFD044680B9FFF70CFDCC
:106930002146FFF709F9FEF71DFB5949044636A821
:1069400009F0B9FC36A92046FFF7B2FD9AE6554991
:106950000AA809F0B3FD00287FF413AEFFF7F4FC9A
:106960000121FFF7F1F8FEF705FB4F490446E6E782
:106970004E4906A809F0A2FD00BB48490AA809F043
:106980009DFD48B9FEF7B8FC012103F0F1FBFEF7CD
:10699000F1FA47490446D2E742490AA809F08EFDB8
:1069A000044600287FF4EDADFEF7A6FC214603F077
:1069B000DFFBFEF7DFFA3F490446C0E73E4906A881
:1069C00009F07CFD002840F0C2803C492EA809F067
:1069D00072FC3B490AA809F071FD002876D10AF043
:1069E0005CFF0A22014636A809F0DEFC36A92EA873
:1069F00009F0C0FC36A809F013FC324936A809F0AA
:106A00005AFCFFF771FC014632A8FEF7CFFC32A911
:106A100036A809F032FD2B4909F03BFD01462EA8AE
:106A200009F01AFD32A809F0FBFB36A809F0F8FBC3
:106A3000FEF7A0FA00F11C012EA809F00DFD2E9919
:106A40000848FEF7D5FB09F045F838B12E9A1E49E3
:106A500036A8FFF7ADFB37A8FFF714FD2EA803E11A
:106A60006A520C00D0DE032082520C0091520C00BE
:106A700065520C0092520C0098520C009B520C0074
:106A8000A1520C00A8520C00B1520C00B8520C00DC
:106A9000BF520C00C9520C00DD520C00E9630C001F
:106AA000E7520C0097630C00F4520C0002530C00E8
:106AB0000C530C0019530C0027530C002C530C00E2
:106AC00037530C00244E0C0032530C00AB490AA87B
:106AD00009F0F4FC0028C1D10AF0DFFE0A220146C9
:106AE00036A809F061FC36A92EA809F043FC36A8A7
:106AF00009F096FBA24936A809F0DDFBFFF7F4FB8D
:106B0000014632A8FEF752FC32A936A809F0B5FCBE
:106B10009B4909F0BEFC01462EA809F09DFC32A855
:106B200009F07EFB36A809F07BFBFEF723FA00F1A3
:106B30002C012EA809F090FC2E999248FEF758FBE4
:106B400008F0C8FF002889D02E9A8F4980E78F4926
:106B500006A809F0B3FC0446002840F088801AA873
:106B600008F0C0FF1AA91EA809F0F1FB84491EA86D
:106B700009F08FFC0546FFF7B7FB014622A8FEF798
:106B800005FD22A9284609F078FC7D4909F081FC21
:106B90000546FFF7A9FB014626A8FEF707FC26A934
:106BA000284609F06AFC764909F073FC0546FFF7B0
:106BB000BBFB224601462AA802F048FD2AA9284626
:106BC00009F05BFC6E4909F064FC0446FFF7ACFB7E
:106BD00001462EA802F08EFE2EA9204609F04DFC9B
:106BE000674909F056FC0446FFF79EFB014632A8B0
:106BF00002F0C4FF32A9204609F03FFC604909F0C9
:106C000048FC0446FFF790FB014636A802F0F8FE68
:106C100036A9204609F031FC014616A809F097FB79
:106C200036A809F0FDFA32A809F0FAFA2EA809F000
:106C3000F7FA2AA809F0F4FA26A809F0F1FA22A82E
:106C400009F0EEFA1EA809F0EBFA1AA809F0E8FA22
:106C500008F040FF38B136A8169A4D49FFF7A8FA58
:106C600037A8FFF70FFC16A809F0DAFA89E44949BA
:106C700006A809F023FC08BB474932A809F01BFB12
:106C8000FFF732FB014636A8FEF790FB36A932A883
:106C900009F068FB36A809F0C3FA32993948FEF7C3
:106CA000A7FA08F017FF38B1329A3C4936A8FFF727
:106CB0007FFA37A8FFF7E6FB32A8D5E7384906A8E0
:106CC00009F0FCFB88B9FFF70FFB014636A8FEF779
:106CD000D1FB36992B48FEF78BFA08F0FBFE002813
:106CE0003FF4D0AC369A2F49D6E52F4906A809F0D3
:106CF000E5FB20B9FFF7F8FAFEF7FCFB41E42B496E
:106D000006A809F0DBFBD8B9234932A809F0D3FA69
:106D1000FEF71CFD014636A801F0BEFA36A932A8DE
:106D200009F020FB36A809F07BFA32991548FEF7E6
:106D30005FFA08F0CFFE0028BED0329A1C49B5E7B2
:106D40001C4906A809F0BAFB00283BD11A490AA839
:106D500009F0B4FB00287FF414AC184936A809F0F8
:106D6000AAFA36990748FEF743FA08F0B3FE00285E
:106D70003FF488AC369A12498EE500BF44530C00AC
:106D8000244E0C00D0DE03203F530C004B530C006C
:106D900058530C005F530C00AA610C00C4540C0043
:106DA00068530C0071530C0078530C007F530C0097
:106DB000BB530C0087530C008F530C0094530C00F2
:106DC000B7530C00A94906A809F078FB002840F049
:106DD000A980A7490AA809F071FB38B9FEF71CFC85
:106DE000A449A548FEF704FAFFF7CBBBA3490AA8BC
:106DF00009F064FB30BBFEF7A9FC03781BB9FEF772
:106E0000A5FC01F0DFF9FEF7A1FC01F0F9F910EEA5
:106E1000104AFEF793FE05902046FDF765FA059AA5
:106E2000CDE90001964936A809F0E4FB369992486D
:106E3000FEF7DEF908F04EFE00283FF423AC369A48
:106E4000904929E590490AA809F038FB20BB0EA813
:106E500009F0CAFB8D49041E12A8D8BF052409F009
:106E60002DFBE4B2054640B9FFF77EFA01232A461E
:106E70002146FEF731FFFFF784BB854912A809F0D0
:106E80001DFB20B9FFF770FA01230222F0E7FFF79C
:106E90006BFA01231A46EBE7FEF758FC03781BB99F
:106EA000FEF754FC01F08EF9FEF750FC01462EA8C7
:106EB00001F03EFAFEF74AFC01F0A2F910EE104A8A
:106EC000FEF73CFE7349059036A809F0F4F936A99F
:106ED0002EA809F01EFB0028204614BF31253025BE
:106EE000FDF702FA059A0095CDE902014FF46163BE
:106EF000694932A809F07EFB36A809F091F9329968
:106F00005D48FEF775F908F0E5FD38B136A8329A0C
:106F10006249FFF74DF937A8FFF7B4FA32A809F034
:106F20007FF99BE55E4906A809F0C8FA88B9FFF722
:106F3000FBF9014636A802F047FD36994E48FEF7A8
:106F400057F908F0C7FD00283FF49CAB369A554925
:106F5000A2E4554906A809F0B1FA80BB47490AA83E
:106F600009F0ACFA00287FF40CABFEF7EFFB0378D6
:106F70001BB9FEF7EBFB01F025F9FEF7E7FB01F08B
:106F80003FF910EE105A0AF06BFC08B10AF085FCCC
:106F900004462846FDF7A8F9009402460B4636A899
:106FA000424909F027FB36993348FEF721F908F0EA
:106FB00091FD00283FF466AB369A3D496CE43D49AB
:106FC00006A809F07BFAE0B93B4932A809F073F949
:106FD000FEF7BCFB014636A801F0EEF936A932A84F
:106FE00009F0C0F936A809F01BF932992248FEF7DA
:106FF000FFF808F06FFD00283FF45EAE329A2F498B
:1070000054E62F4906A809F059FA88B9FFF78CF918
:10701000011D36A809F09BF936991748FEF7E8F8E4
:1070200008F058FD00283FF42DAB369A254933E48B
:10703000254906A809F042FA00284BD123490AA89D
:1070400009F03CFA30B9FEF757F9012103F0B2F824
:10705000FFF797BA1E490AA809F030FA044600283B
:107060007FF48FAAFEF748F92146EFE7C0530C00E2
:10707000D6530C00CB530C00D0DE03208F530C00F2
:10708000DC530C005B500C00E1520C0015520C005C
:1070900025520C00C3650C0004540C0039540C003C
:1070A0004B540C0051540C0057540C005C540C0011
:1070B0007D540C0082540C00AA610C0088540C0012
:1070C0008E540C00D6550C0092540C00E9630C0051
:1070D00097630C00894906A809F0F0F9B8B9884906
:1070E0000AA809F0EBF930B9FEF706F9012103F01F
:1070F000AFF8FFF746BA83490AA809F0DFF904465A
:1071000000287FF43EAAFEF7F7F82146EFE77E4914
:1071100006A809F0D3F900284AD10BF02DFA7B49D3
:1071200009F00FFBFEF7E8F8012103F043F86420B3
:107130000AF0FAFB0BF020FA754909F002FBFFF7A1
:10714000D3F8FEF7EDF864200AF0EEFB0BF014FA2A
:10715000704909F0F6FAFEF7F9FA01F07FF96420B8
:107160000AF0E2FB0BF008FA6B4909F0EAFAFFF7C4
:10717000DBF802F037FC64200AF0D6FB0BF0FCF9D8
:10718000664909F0DEFAFFF7CFF802F077FB6420DA
:107190000AF0CAFB0BF0F0F9614909F0D2FAFFF7E7
:1071A000C3F802F041FC64200AF0BEFBFFF7E9B926
:1071B0005C4906A809F082F9044600284AD10BF080
:1071C000DBF9594909F0BDFAFFF7BEF8FEF7CAFB33
:1071D000FFF78AF8FEF7D2F864200AF0A5FB0BF05F
:1071E000CBF9524909F0ADFAFEF7B0FA00F0CAFF48
:1071F00064200AF099FB0BF0BFF94D4909F0A1FAA0
:10720000FFF792F802F0F7FB64200AF08DFB0BF019
:10721000B3F9484909F095FAFFF786F802F066FBE2
:1072200064200AF081FB0BF0A7F9434909F089FAC1
:10723000FEF762F8214602F0BDFF64200AF074FBFD
:107240000BF09AF93D4909F07CFAFFF76DF802F06E
:1072500091FCA8E73A4906A809F030F950B90BF0BB
:107260008BF9384909F06DFAFEF746F8012102F072
:10727000EFFF98E7344906A809F020F9044688B9D9
:107280000BF07AF9314909F05CFAFFF74DF802F09A
:10729000A9F964200AF048FB0BF06EF92C4909F0BB
:1072A00050FA30E72B4906A809F008F998B9FEF71B
:1072B00023F8012102F0CCFF4FF47A700AF034FB7E
:1072C0000BF05AF9244909F03CFAFFF72DF802F0C7
:1072D00003F9FFF756B9214906A809F0EFF800288D
:1072E0007FF44FA90BF048F9184909F02AFAFFF783
:1072F0001BF802F077F9FFF744B900BF9B540C006C
:10730000E9630C0097630C00A4540C00AA540C0011
:10731000B9540C00C8540C00DA540C00F2540C00A0
:1073200010550C0023550C002A550C0042550C003A
:1073300055550C006E550C008D550C009D550C00DC
:10734000B1550C00B6550C00C4550C00CA550C00C4
:10735000DA550C00E9550C00EF550C00FE550C00F9
:1073600000B589B01349684608F0A5FF0BF004F991
:107370000A22014604A809F069FA04A9684608F03F
:10738000F1FF04A808F04CFF684609F004F9029BDD
:107390004BB1694604A808F0DAFF04A8FFF7A8F883
:1073A00004A808F03DFF684608F03AFF09B05DF810
:1073B00004FB00BFAA610C002DE9F0412DED028B0A
:1073C00090B08046FEF7C2F903781BB9FEF7BEF90C
:1073D00000F0F8FEFEF7BAF900F012FF10EE106AA6
:1073E000FEF7B4F900F04CFF142805460BDC08F05A
:1073F00071FB58B10AF034FA834C002878D1236825
:10740000002B77D002E0182800F39B803046FCF771
:107410006BFF7BA3D3E90023FDF730FA002862D08D
:107420007A497B48FDF7E4FE42F210700AF07CFADC
:10743000FEF78CF900F0E4FE10EE100AB0EE408A80
:10744000FCF752FF6EA3D3E9002306460F46FDF773
:1074500015FA002847D06F490CA808F02CFFB0EEB1
:10746000480A062108A808F0BAFF08A90CA809F0E4
:1074700004F8694909F00DF8014604A808F067FF0F
:1074800008A808F0CDFE0CA808F0CAFE04996048D0
:10749000FDF7AEFE04A90CA808F059FF0CA9404660
:1074A000FFF706F80CA808F0BBFEFEF74FF90146FF
:1074B00008A800F03DFF59490CA808F0FCFE0CA9F3
:1074C00008A809F026F804460CA808F0A9FE002C2C
:1074D0003BD053494E48FDF78BFE08A808F0A0FEAC
:1074E00004A808F09DFE10B0BDEC028BBDE8F08151
:1074F0002368DBB93046FCF7F7FE2A46CDE90001E8
:1075000048490CA809F076F80C9A474908A8FEF7F4
:107510004FFE09A8FEF7B6FF0AF0A2F970B10AF013
:10752000BCF920600CA808F07BFE6FE70AF0B5F903
:107530002368C01AB0F5615FDCD267E701232360DE
:10754000F0E7314B00221A6060E7384930482E4C92
:10755000FDF74EFE9FED360A28EE008A0123BCEEB1
:10756000C88A237118EE103AE3800AF079F908B15D
:107570000AF093F9A060102200210CA8B4F806804C
:10758000A5680DF0B5FA0CF069F80CA910220020DE
:1075900007F03EFF274B0C9AADF834809A420BBFA0
:1075A0000F9B0C93013301230F930E950CF056F8AB
:1075B00010220CA9002007F033FF08F08BFAB0B1BD
:1075C000A3681D49009332463B460CA809F012F807
:1075D0000C9A154902A8FEF7EBFD03A8FEF752FF2F
:1075E00000232371FEF7D4FD0CA808F019FEFEF766
:1075F000BBFE01221E21FEF7EFFC6EE7AFF3008019
:107600009A99999999990D4000F4032028560C00F5
:10761000D0DE03205A560C0067560C00C3650C00E0
:107620006A560C0005560C00B7530C008C560C0023
:1076300000007A44544C4248CE560C0070B50446C3
:1076400040F6B8300AF070F976497748774EFDF782
:10765000CFFD2046FFF7B0FEFEF796FE7449724854
:10766000FDF7C6FD0121206802F0A2FC64200AF0AB
:107670005BF90AF081FF6F4909F063F8A06801F037
:10768000CBF864200AF050F96B4BA06993ED000A27
:107690006A4B83ED000A6A4B197802F044FB6420C0
:1076A0000AF042F967486FF00041FEF7BDFD6648F9
:1076B0006FF00041FEF7B8FD6FF000416348FEF740
:1076C000B3FD0AF059FF624909F03BF864200AF063
:1076D0002BF90121206802F06DFD42F210700AF0D2
:1076E00023F90AF049FF5B4909F02BF864200AF0FE
:1076F0001BF90121206802F0ABFD42F210700AF084
:1077000013F9606801F078FE42F210700AF00CF98B
:107710000AF032FF504909F014F841F288300AF0BB
:1077200003F92069FDF7FCFD64200AF0FDF80AF07A
:1077300023FF4A4909F005F8E06800F08FFE642055
:107740000AF0F2F80AF018FF454908F0FAFF6068FD
:1077500002F048F964200AF0E7F80AF00DFF414909
:1077600008F0EFFF4FF4FA700AF0DEF800256068C9
:1077700002F084F860B901350AF0FEFE2A4631466F
:10778000FDF79CFF4FF4FA600AF0CEF8072DEED11A
:1077900064200AF0C9F80AF0EFFE3349334E08F0CE
:1077A000D0FF40F6B8300AF0BFF8606802F03CF94C
:1077B00064200AF0B9F841F288300AF0B5F82C4993
:1077C0001948FDF715FD4FF4FA600AF0ADF860694D
:1077D000FDF7D0FF64200AF0A7F80AF0CDFE254996
:1077E00008F0AFFF4FF4FA700AF09EF800256068C9
:1077F00001F072FE60B901350AF0BEFE2A4631463C
:10780000FDF75CFF4FF4FA600AF08EF8032DEED11D
:1078100064200AF089F818490348FDF7E9FC0120C3
:1078200070BD00BFF2560C00D0DE032039570C00AB
:10783000FD560C0013570C00B0D30320ACD303202B
:10784000B4D3032004D7032020D70320E8D6032095
:10785000AA540C0026570C00B9540C00C8540C0054
:10786000DA540C00F2540C004C570C007B570C00FF
:1078700062570C00EF550C008D570C0038B50468AA
:10788000002008F05FF820B1637813B908F012F90E
:10789000FAE76378BFF35B8F651C0BB9002038BD36
:1078A000002008F04FF820B12B7813B908F002F946
:1078B000FAE72378012BF1D1207BF0E77FB51B4B52
:1078C0001B4E1C4D1C48039600241C701B4B009340
:1078D0006A46234641F288310295FEF7BDFC6846B0
:1078E000FDF7F8FA164B174900936A4623461648E7
:1078F000CDE90256FEF7B0FC6846FDF7EBFA134BF4
:1079000000936A4623464EF660211148CDE902569F
:10791000FEF7A2FC6846FDF7DDFA21460D480AF0A5
:10792000ADF90D4808F0DEF804B070BDB8D60320FC
:10793000894E0B00754E0B0004D703206D610B00C0
:1079400079610B00005C260520D7032085610B00C0
:10795000E8D60320D8D60320C4D603202DE9F04171
:10796000DFF8408398F80030A0B00446002B4AD1DD
:1079700008F0B0F8002846D0E06803780BB900F0B2
:1079800021FCE06800F07CFC0546E06800F038FC73
:1079900010EE100AFCF7A8FC06460F46CDE9026778
:1079A000A94A009503231268A84916A808F022FEE8
:1079B000169AA7491BA8FEF7FBFB1CA8FEF762FD61
:1079C000142D1ADC2A46A349A34D1BA8CDE9006754
:1079D00008F010FE1B9AA14912A8FEF7E9FB13A8B4
:1079E000FEF750FD09F03CFF002800F08D8209F001
:1079F00054FF28601BA808F013FC012316A888F880
:107A0000003008F00DFC08F065F8002800F0B880A0
:107A1000102200210AA80DF06BF80BF01FFE1022B7
:107A20000AA9002007F0F4FC8D4B0A9A8A4D9A426D
:107A300040F06D82BDF82C309FED8A7A07EE903AC7
:107A4000F8EEE77AC7EE877A17EE900AFCF74CFC5F
:107A50000B460D9901910C990091024682491BA891
:107A600008F0C8FD1B9A7D4916A8FEF7A1FB17A8D0
:107A7000FEF708FDFEF78CFB00231BA82B7108F016
:107A8000CFFB1422002116A80DF032F80BF0E6FD12
:107A9000142216A9202007F0BBFC744B169A9A42B8
:107AA0002FD1199B0393189B0293BDF85C309FED77
:107AB0006D7A07EE903AF8EEE77AC7EE877A17EE1E
:107AC000900AFCF711FC1A9ACDE90001684912A846
:107AD00008F090FD129A67491BA8FEF769FB1CA8E5
:107AE000FEF7D0FC142200211BA80DF001F80BF0CA
:107AF000B5FD202014221BA907F092FC12A808F063
:107B00008FFB102200210EA80CF0F2FF0BF0A6FD57
:107B100010220EA9402007F07BFC574B0E9A9A4288
:107B20002ED1BDF83C309FED4F7A07EE903AF8EE3B
:107B3000E77AC7EE877A17EE900AFCF7D5FB0B467B
:107B4000119901911099009102464C4912A808F030
:107B500051FD129A4A491BA8FEF72AFB1CA8FEF702
:107B600091FC102200211BA80CF0C2FF0BF076FD47
:107B7000402010221BA907F053FC12A808F050FB6C
:107B8000404D07F035FC2B68C01A3F4B984256D346
:107B900009F083FE0A22014612A808F005FC3B49C1
:107BA0001BA808F088FBFEF79FFB014616A8FDF70F
:107BB000FDFB16A91BA808F060FC344908F069FC1D
:107BC000014612A808F048FC16A808F029FB1BA8DB
:107BD00008F026FB04F11C0112A808F03DFC2C491A
:107BE0001BA808F068FB12A91BA808F046FC016856
:107BF0002848FDF7FDFA1BA808F012FB07F06AFF02
:107C0000002800F0AB81129A23491BA8FEF7D0FA96
:107C10001BA8FFF733FE06461CA8FEF733FC002E18
:107C200000F0978107F0E4FB1C4928601948FDF734
:107C3000DFFA07F0DDFB286012A808F0F1FA184B14
:107C40001A78002A78D02FE0C4D6032096570C006B
:107C5000CF570C00D4570C0000F40320B7530C008E
:107C6000544C424800007A44F3570C00544154539A
:107C700021580C005B500C00454B41575F580C00DD
:107C80007D540C00E0D6032080EE3600244E0C001C
:107C900088580C00D0DE032032530C0095580C009D
:107CA000D5D60320C0D60320002661681E700122AD
:107CB0000AA801F0CBFC0A9A616805920EA801F0AF
:107CC00019FE0E9B6168049312A801F057FF6168CA
:107CD000129D16A801F094FE1699DDE90432CDE953
:107CE00000511BA8AB4904F11C0508F083FC1BA93B
:107CF000284608F037FB1BA808F092FA16A808F0EF
:107D00008FFA12A808F08CFA0EA808F089FA0AA8CF
:107D100008F086FAA76829461BA808F018FB314628
:107D20001BAB3246384600F035FE1BA808F078FA47
:107D300099499A48FDF75CFA994B1A78002A4FD076
:107D4000E168002606A81E7000F0A6FA069AE1680F
:107D500005920AA800F0ECFA0A9BE16804930EA8C9
:107D600000F0A0FBE1680E9D12A800F025FBE16881
:107D7000129F16A800F0CCFB16990095DDE904329D
:107D8000CDE901711BA8874904F12C0508F032FCEC
:107D90001BA9284608F0E6FA1BA808F041FA16A825
:107DA00008F03EFA12A808F03BFA0EA808F038FADC
:107DB0000AA808F035FA06A808F032FAA76829469A
:107DC0001BA808F0C4FA31461BAB0122384600F06C
:107DD000E1FD1BA808F024FA73497048FDF708FA82
:107DE000724D2B78002B00F089800AF0C5FB70499A
:107DF00008F0A7FC6E496948FDF7FAF90023204610
:107E00002B70FFF7D9FA0AF0B7FB6A4908F099FC22
:107E100069480BF067FA002800F0F0800AF0ACFB2C
:107E20006649674E08F08DFC07F054FE07460028AF
:107E300000F09680634F3B78002B3FD10AADA068DD
:107E400000F016FE29460A2208F074F95E4B1A6803
:107E50000592FEF749FA014612A8FDF797FB129B1F
:107E60000493FEF741FA014616A8FDF79FFAE16870
:107E7000DDF858801BA800F00FFA1B99CDF80080A0
:107E8000DDE90432CDE901510EA8464908F0B2FB04
:107E90001BA808F0C5F916A808F0C2F912A808F046
:107EA000BFF90E9A49491BA8FEF782F91CA8FEF7F4
:107EB000E9FA01230EA83B7008F0B2F90AF05CFB66
:107EC000434908F03EFC3378424A01331278DBB272
:107ED0009A42337012D800251BA8CDE91B55357086
:107EE000ADF874508DF8765009F0EDFF32482B460E
:107EF00040682A46294607F08DFD3D70606920B034
:107F0000BDE8F041FDF73ABD01232B6072E52B7906
:107F1000002B3FF4B6ADEB889FED2F7A07EE903A39
:107F2000F8EEE77AC7EE877A17EE900AFCF7DCF9ED
:107F30000B46A9680091024628491BA808F05AFB85
:107F400016A81B9A2649FEF733F917A8FEF79AFAE6
:107F500092E524491148FEF7AFF96AE62249F9E7AC
:107F60000AF00AFB214908F0ECFBA06901F0E6FEEB
:107F7000054630B10AF000FB1D4908F0E2FB3770FE
:107F8000BCE70AF0F9FA1B4908F0DBFB1A4B357025
:107F90001D80B3E7475D0C000B590C00D0DE0320B9
:107FA000D6D6032013590C0022590C00D4D6032036
:107FB00031590C0044590C0070DF032054590C0057
:107FC000E5D60320E4D60320C4D603206C590C0068
:107FD00071590C00B5D3032000007A44CE560C0032
:107FE000B7530C00B9580C00E8580C0090590C001D
:107FF000B3590C00CF590C00B6D303200AF0BCFAD9
:1080000019491A4E08F09DFB194B9FED1A7AD3EDD2
:10801000007A358867EE877A0135F5EEC07AADB221
:10802000F1EE10FA17EE900A358016DBFCF75CF9DA
:10803000114B0022FBF7FAFFFCF75EFCA8423FF76A
:108040005DAF0E4800231A461946406807F0DAFC77
:1080500007F038FD0023338050E7FCF745F9064B65
:108060000022FBF7E1FFE7E7EC590C00B6D3032051
:10807000B0D30320000070420000E03F70DF032017
:1080800038B510EE100AFCF72FF91FA3D3E900232F
:1080900004460D46FCF710FC58BB1DA3D3E9002392
:1080A00020462946FCF708FC28BB1BA3D3E9002384
:1080B00020462946FCF700FCF8B919A3D3E90023B0
:1080C00020462946FCF7F8FBC8B917A3D3E90023DB
:1080D00020462946FCF7F0FB98B915A3D3E9002305
:1080E00020462946FCF7DEFB002814BF0A200020AA
:1080F00038BD6420FCE75020FAE73C20F8E7282050
:10810000F6E71420F4E700BFC3F5285C8FC21040E7
:108110000AD7A3703D0A1040E17A14AE47E10E4041
:1081200052B81E85EB510E409A99999999990D4034
:10813000CDCCCCCCCCCC0C4010B504468AB0084693
:108140004FF0200C0021CDE90023CDE902C10B4600
:1081500002AA216807F0B4FB0AB010BD0EB403B543
:1081600003AB322153F8042B0193FFF7E5FF02B074
:108170005DF804EB03B07047002202704270827019
:10818000C270704710B5037804460BB1002303702A
:10819000642009F0C9FB63780BB10023637064208D
:1081A00009F0C2FBA3780BB10023A370642009F08F
:1081B000BBFBE3780BB10023E370642009F0B4FB50
:1081C000012010BD38B56B210446094803F056FA6A
:1081D000054638B107490848FDF70AF8012323701E
:1081E000207838BD05490448FFF7B8FF2570F7E748
:1081F00040D70320055A0C00D0DE0320295A0C007A
:1082000007B503789BB10D4803F04EFA10EE100A43
:108210008DED010AFCF768F802460B46084809494B
:10822000FCF7E6FF9DED010A03B05DF804FB06498B
:108230000348FEF741F89FED050AF5E740D7032014
:10824000D0DE03204D5A0C00645A0C0000000000E0
:10825000037813B1024803F039BA9FED020A704760
:1082600040D7032000000000037813B1024803F058
:1082700037BA9FED020A704740D703200000000084
:1082800008B503782BB1FFF7BBFFBDE80840FFF747
:10829000F7BE184608BD0000F0B50B7891B0054652
:1082A0000C46002B39D01F4908A808F004F82046D6
:1082B000FFF7A6FF10EE107AFFF7E2FE07902046C8
:1082C000FFF7D2FF204610EE106AFFF7C1FF10EE55
:1082D000100AFCF709F8CDE904013846FCF704F868
:1082E000CDE902013046FBF7FFFF079ACDE9000117
:1082F0000D490CA808F07EF90CA908A808F032F87E
:108300000CA807F08DFF08A9284608F006F808A871
:1083100007F086FF284611B0F0BD044907F0CBFFF7
:10832000F8E700BF036B0C00955A0C00A1610C002C
:1083300070B50C4686B01249054607F0BCFF23789D
:10834000D3B1104803F0ECF906460E4803F0F9F9F2
:10835000041E0C4818BF344603F0ECF90A4900909B
:108360002346324602A808F045F902A9284607F03C
:10837000F9FF02A807F054FF284606B070BD00BF01
:10838000A75A0C0040D70320AD5A0C0038B504465C
:10839000002201250548402105F0CEF90449054891
:1083A0006570FCF725FF284638BD00BF4CD7032079
:1083B000B65A0C00D0DE03207FB54B780446F3B1EB
:1083C000114805F03DFA104810EE106A05F068FA01
:1083D000304610EE105AFBF787FF02460B46284640
:1083E000CDE90223FBF780FFDDE90223CDE900019F
:1083F0000649204608F0FEF8204604B070BD044946
:1084000007F059FFF8E700BF4CD703209D5A0C0036
:10841000A7610C0038B50446012201250548452115
:1084200005F08AF904490548A570FCF7E1FE2846E5
:1084300038BD00BF60D70320E05A0C00D0DE032017
:1084400010B50124C47003490348FCF7D1FE20464F
:1084500010BD00BF095B0C00D0DE032010B503780F
:1084600004460BB9FFF7AEFE642009F05DFA6378AD
:1084700013B92046FFF78AFF642009F055FAA37864
:1084800013B92046FFF7C6FF642009F04DFAE378E0
:1084900013B92046FFF7D4FF642009F045FA012004
:1084A00010BD000010B50B78044673B1094803F005
:1084B00017F910EE100AFBF717FF02460B4620468D
:1084C000054908F097F8204610BD044907F0F3FE6F
:1084D000F9E700BF40D70320455B0C00A7610C0003
:1084E00008B5074803F040F8064805F024F90648A7
:1084F00005F021F9BDE808400448002109F0BEBBA1
:1085000040D703204CD7032060D7032044D7032053
:1085100010B5044688B00E480AF0E4FE98B10C4944
:1085200068460AF08BFA684609F03AFA10EE100A2B
:10853000FBF7DAFE02460B462046064908F05AF8D9
:10854000204608B010BD0449204607F0B4FEF7E706
:1085500070DF0320F5610C00AA610C0070B50C1EE1
:10856000064615460BDA0A2A09D12D2108F0D6F85D
:108570006142EAB23046BDE8704008F0EEB82146EC
:10858000F7E74B6843608B688360CB68C36030B5A6
:1085900000F1100301F10F0200F11D0412F8015F58
:1085A00003F8015BA342F9D10B6A036230BD0000FE
:1085B000142310B50360082304460B4903711844C3
:1085C00007F079FE04F1180003F0C4FA0023012239
:1085D000C4E90F2384F8443004F148000AF04EFE49
:1085E000024B6366204610BDAA610C00AB5A0C001A
:1085F00010B50446183003F04FFA044803F08AFC23
:10860000002384F84430012010BD00BFF4DA0320B9
:1086100070B575490546ADF5866D744803F032FDB9
:1086200005F11804B8B9704A7049162312A803F06E
:10863000E5FC12A92046FFF7A4FF03F0D1FA20B110
:1086400009F09AFF6A4908F07CF80123EB630120E6
:108650000DF5866D70BD204603F0C2FA88B9624AF6
:108660006249162312A803F0C9FC12A92046FFF79D
:1086700088FF03F0B5FA0028E7D009F07DFF5D49D7
:10868000E1E7204603F0ACFAA8B109F075FF5A49BA
:1086900008F040F809F070FF0646204603F07DFA26
:1086A0000A220146304608F058F8304608F03DF8F6
:1086B000204603F089FA09F025F9039009F016F92C
:1086C000029009F0FBF8064609F004F9DDE90232F0
:1086D000CDE90060494905A807F08CFF484912A878
:1086E00007F0E9FD05A912A807F0C7FE014605A895
:1086F00007F01EFE12A807F093FD05A912A807F0C7
:1087000026FE404912A807F0C4FE014605A807F05E
:108710000FFE12A807F084FD09A8059A3349162315
:1087200003F06CFC09A803F05BFA002843D02F4942
:108730002D4A12A8012303F061FC12A92046FFF77D
:1087400020FF4FF47A7212A9204603F019FA02466C
:1087500038B112A909A803F087F909A803F09CF918
:10876000EFE709A803F030FA204603F02DFA09F0EC
:1087700003FF254907F0E5FF204603F0F7F901461E
:108780001A4803F0A9FC184A1849162312A803F046
:1087900035FC12A92046FFF7F4FE03F021FA80B958
:1087A00009F0EAFE194907F0CCFF0123EB6305A8A5
:1087B00007F036FD4BE709F0DFFE154907F0C1FF72
:1087C000E1E709F0D9FE1349044612A807F073FD4A
:1087D00005A912A807F051FE0168204607F0B1FF75
:1087E00012A807F01DFDE0E7AD5E0C00F4DA0320EF
:1087F0004D5B0C00605B0C00765B0C00895B0C0031
:108800009E5E0C00B35E0C009A5B0C00BE5B0C001D
:10881000AD5B0C00D75B0C001FB50446684607F043
:1088200061F9694604F1080007F09CFD684607F00D
:10883000F7FCC823236009F09FFE284907F081FF59
:108840002179274803F0AAFA84F8440020B909F0F6
:1088500093FE244907F075FF09F08EFE224907F0C8
:1088600070FF00220721214804F054FD09F084FE26
:108870001F4907F070FF09F07FFE0368DB69984726
:108880001C49174803F00CFC20B909F075FE1A4981
:1088900007F057FF1949124803F002FC20B909F00C
:1088A0006BFE174907F04DFF12490D4803F0EAFB34
:1088B00020B109F061FE134907F043FF0F49084852
:1088C00003F0E0FB20B109F057FE0F4907F039FF34
:1088D0002046FFF79DFE012004B010BDF25B0C00A6
:1088E000F4DA03200B5C0C00245C0C002CDB03206E
:1088F0005E5C0C00545D0C007D5C0C00735D0C0034
:10890000AF5C0C00E05C0C00F45C0C0070B50D4634
:10891000044609F031FE1C4907F0FCFE04F118067C
:1089200009F02AFE296807F00CFF2968304607F095
:1089300008FF304603F0B0F806F05AFDE36B206400
:108940000133E36309F018FE104907F0E3FE09F074
:1089500013FEE16B0A22054607F0FFFE284607F0EA
:10896000E4FEE36B2268B3FBF2F102FB11334BB977
:1089700009F002FE064907F0E4FE2046FFF748FE34
:108980000123E36370BD00BF075D0C00175D0C00A1
:10899000355D0C00F0B593B01E46836805920493D4
:1089A0000D460446FDF7A0FC01460AA8FCF7EEFDC3
:1089B0000A9FFDF799FC01460EA8FCF7F7FC316809
:1089C00002910E99DDE90432CDE9007106A824492F
:1089D00007F010FE0EA807F023FC0AA807F020FC01
:1089E00006A90EA807F0B3FC0EA92046FFF78EFFDC
:1089F0000EA807F015FC09F0BFFD1A4907F0A1FE0B
:108A0000012D27D107F066F820B3069C164B2046AF
:108A10001D780CB1FCF7B2F900233C22CDE90032FD
:108A200012498DF80850034622460EA809F064FB4F
:108A30000F9C7CB16368013B63605BB9236820468F
:108A40009B689847A368013BA3601BB92368204635
:108A5000DB68984706A807F0E3FB13B0F0BD00BF42
:108A6000445D0C00036B0C0074D703206C590C00A0
:108A700010B59CB001A803F06DF80AA803F06AF8DD
:108A80001A4A1B49012313A803F0B8FA13A901A835
:108A9000FFF777FD03F0A4F8044638B909F06CFD40
:108AA000144907F04EFE20461CB010BD012201A95A
:108AB00013A803F01FFB13A90AA8FFF762FD002407
:108AC0000AA803F08DF868B10AA803F07DF801A99F
:108AD00013A8012203F00EFB13A90AA80134FFF723
:108AE00050FDEDE701A803F06FF8DCE7535D0C00E3
:108AF000F4DA03205A5D0C002DE9F0430746ABB0D1
:108B000044480D46444903F0BDFA0646002837D0D4
:108B100021A8414A3F49012303F070FA21A803F03C
:108B20005FF858B321A803F038F8044621A803F0F1
:108B30004BF806A8394A3749012303F05FFA06A823
:108B400003F04EF8002845D0012206A918A803F02A
:108B5000D1FA4FF0000818A803F042F890B118A815
:108B600003F032F806A921A8012203F0C3FA21A9D3
:108B700018A808F10108FFF704FDECE70446D8E760
:108B80000446D6E706A803F01FF80FA8244A214997
:108B9000012303F033FA0FA803F022F8002836D09F
:108BA00001220FA918A803F0A5FA4FF0000918A890
:108BB00003F016F888B118A803F006F80FA921A849
:108BC000012203F097FA21A918A809F10109FFF77A
:108BD000D8FCECE74FF0FF38D7E70FA802F0F4FF1E
:108BE0002B6C1BB106F004FC2B6CC31A0493EB6BCB
:108BF00095F844200B49CDE902933846CDE9004869
:108C0000334607F0F7FC38462BB0BDE8F0834FF051
:108C1000FF39E5E7F4DA0320AD5E0C00535D0C008C
:108C2000725D0C00785D0C00F0B5A9B00DA80C4683
:108C300002F090FF16A802F08DFF52490123224650
:108C40001FA803F0DBF91FA916A8FFF79AFC02F092
:108C5000C7FF48B909F090FC214607F05BFD09F019
:108C60008BFC494907F06DFD012216A91FA803F0EE
:108C700041FA1FA90DA8FFF784FC444E444D454F0F
:108C80000DA802F0ADFF002877D0314601A807F00B
:108C900012FB16A802F06AFF2946FCF765F80028C7
:108CA00044D10DA802F062FF01461FA807F003FBA4
:108CB0001FA901A807F056FB1FA807F0B1FA09F099
:108CC0005BFC019907F026FD09F056FC394607F0D8
:108CD00021FD09F051FC04460DA802F05EFF0A22B6
:108CE0000146204607F039FD204607F01EFD0DA87D
:108CF00002F03EFF04460DA802F066FF4CB9019950
:108D0000204803F0E9F920B909F036FC224907F0C0
:108D100018FD012216A91FA803F0ECF90DA81FA940
:108D2000FFF72FFC01A807F07BFAA9E716A802F0CD
:108D30001DFF014605A807F0BEFA05A909A807F01E
:108D400006FB294609A807F0A4FB04460DA802F07B
:108D50000DFF01461FA807F0AEFA1FA9204607F035
:108D60008CFB014601A807F0E3FA1FA807F058FAA8
:108D700009A807F055FA05A89FE716A802F024FFF6
:108D800029B0F0BDF4DA0320CB5D0C00036B0C00BE
:108D9000AA5E0C00DB5D0C00E25D0C0038B50446F9
:108DA0000D460D49FFF740FF0C492046FFF73CFFF9
:108DB0005DB10B492046FFF737FF0749094803F02B
:108DC0007DF90649074803F079F909F0D5FB064912
:108DD00007F0B7FC012038BD535D0C00725D0C003C
:108DE000AA5E0C00F4DA0320F55D0C0010B5044611
:108DF00009F0C2FB254907F0A4FC94F844306BB994
:108E00002179234802F0CAFF84F8440030B909F000
:108E1000B3FBBDE810401F4907F093BC09F0ACFB61
:108E20001D4907F08EFC04F1180002F0CDFE01216F
:108E30002046FFF7B3FF09F09FFB184907F081FCBC
:108E40001749134803F02CF9C0B909F095FB1549EF
:108E500007F077FC14490E4803F022F990B909F0A5
:108E60008BFB124907F06DFC09F086FB104907F0F7
:108E700068FC2046BDE81040FFF7CABB09F07CFB48
:108E80000C49E5E709F078FB0B49EBE7025E0C00C3
:108E9000F4DA03201D5E0C002F5E0C00455E0C0012
:108EA000545D0C007D5C0C00735D0C00AF5C0C002D
:108EB000805E0C00575E0C006C5E0C0030B5A9B0F3
:108EC00009F05AFB4A4907F03CFC04A8494A4A49C0
:108ED000012303F093F804A802F082FE002835D0A5
:108EE000012204A916A803F005F9444D16A802F0C2
:108EF00077FE40B309F040FB294604461FA807F05F
:108F0000DAF916A802F032FE01460DA807F0D3F9EF
:108F10000DA91FA807F0B1FA0168204607F011FC5F
:108F20000DA807F07DF91FA807F07AF916A802F03E
:108F30004BFE04A91FA8012203F0DCF81FA916A804
:108F4000FFF71FFBD2E704A802F03EFE0DA82C4A53
:108F50002949012303F052F80DA802F041FE002830
:108F600035D001220DA916A803F0C4F8254D16A886
:108F700002F036FE40B309F0FFFA294604461FA866
:108F800007F099F916A802F0F1FD0146684607F0CE
:108F900092F969461FA807F070FA0168204607F0A9
:108FA000D0FB684607F03CF91FA807F039F916A86E
:108FB00002F00AFE0DA91FA8012203F09BF81FA9C9
:108FC00016A8FFF7DEFAD2E70DA802F0FDFD0E4964
:108FD000094803F057F820B109F0CEFA0B4907F021
:108FE000B0FB09F0C9FA0A4907F0ABFB29B030BD64
:108FF000925E0C00535D0C00F4DA03209D5E0C00C1
:10900000725D0C00A55E0C00AD5E0C00AC5E0C0049
:10901000B85E0C0030B500F11805D3B028460C46F8
:1090200002F0DEFD10B1284602F036FD09A82B49FA
:109030000123224602F0E2FF09A802F0D1FD30B977
:1090400009F09AFA264907F07CFB53B030BD09F0CD
:1090500093FA2449054612A807F02DF9214605A8E0
:1090600007F029F905A912A807F007FA01682846B0
:1090700007F067FB05A807F0D3F812A807F0D0F8AF
:109080004FF4807212A909A802F07AFD054638B1A2
:1090900009F072FA03682A46DB6812A99847EFE7DD
:1090A00009A802F091FD09F067FA0F49054605A8E5
:1090B00007F001F9214601A807F0FDF801A905A86C
:1090C00007F0DBF90168284607F03BFB01A807F031
:1090D000A7F805A807F0A4F8B7E700BFF4DA032063
:1090E000C15E0C00DD5E0C00E95E0C00014B00224D
:1090F0001A70704774D703202DE9F04F4B1CADF266
:10910000844D05460C461CD1FFF7B2FC044609F01D
:1091100033FA944907F015FB934A944901230BA8AD
:1091200002F06CFF0BA802F05BFD064678B909F06F
:1091300023FA8F4907F005FB30460DF2844DBDE858
:10914000F08FFFF795FCA042E1DA2846DCE709F052
:1091500013FA0A222146FFF701FA483509F00CFA02
:10916000844907F0EEFA844900234FF480622846D0
:1091700009F088FE0746002800F0F08009F0FCF9AD
:109180007E49DFF818A2DFF818B207F0DAFA14A85F
:1091900002F0E0FC4FF000094C4540F3D980012279
:1091A0000BA926A802F0A6FF26A914A8FFF7E9F943
:1091B00002F016FD074628B909F0DEF9704907F0FC
:1091C000C0FAC9E06F4926A807F075F814A802F0A4
:1091D000CDFC01461DA807F06EF81DA926A807F0D2
:1091E0004CF9014603A807F0B2F81DA807F018F8DB
:1091F00026A807F015F809F0BFF9514607F08AFADA
:1092000009F0BAF9039907F09CFA09F0B5F9594643
:1092100007F080FA14A802F0C0FC804609F0ACF90F
:109220000A2207464146FFF799F9384607F07DFACA
:1092300014A802F0B2FC78B3404606F07BFC1FFA9B
:1092400088F20746014614A802F09AFC09F094F946
:109250004D4907F076FA09F08FF9394607F071FAAF
:1092600042463946284609F062FD019009F084F92A
:10927000464907F04FFA09F07FF9019B0A22194687
:109280008046FFF76BF9404607F04FFA284609F091
:109290007DFD384606F056FC14A802F095FC3C49CA
:1092A00026A807F008F814A802F060FC01461DA8E3
:1092B00007F001F81DA926A807F0DFF8014607A866
:1092C00007F045F81DA806F0ABFF26A806F0A8FF9A
:1092D0001DA8079A2549162302F090FE1DA802F04A
:1092E0007FFC60B32149039A26A8012302F086FE81
:1092F00026A914A8FFF745F94FF47A7226A914A8F5
:1093000002F03EFC024638B126A91DA802F0ACFBD3
:109310001DA802F0C1FBEFE71DA802F055FC14A840
:1093200002F052FC0399114802F0D6FE07A806F09D
:1093300077FF03A806F074FF09F101092CE709F093
:109340001BF9144907F0FDF914A802F03DFCEDE704
:10935000284609F049FF37463E46EDE609F00CF98C
:109360000D492CE7F35E0C00535D0C00F4DA03208A
:109370005A5D0C00085F0C00255F0C002F5F0C008D
:10938000525F0C009E5E0C00A15F0C00C55F0C00DC
:10939000A65E0C00DD5F0C0005600C008A5F0C000F
:1093A0009A5F0C0038B50446002500F8045B0449B8
:1093B00006F081FFC4E90555E561204638BD00BFD0
:1093C000AA610C0038B5044618252A4600210BF086
:1093D0008FFB25804FF400750649A560284625615E
:1093E0000AF07AF90349606028460AF075F9E060EE
:1093F000204638BDF8700C0010B586B009F0BCF8F6
:10940000164907F09EF90AF041F909F01DFC1824ED
:10941000642008F089FA2246002168460BF068FBB8
:109420000F4B104A01934FF48073CDE903230022C0
:109430001146104602936B46ADF8004006F0F8F86E
:109440000AF024F9084909F0F5FB09F095F80749F5
:1094500007F077F9012006B010BD00BF2A600C00AC
:109460008CD703208CD80320A086010056600C0006
:1094700007B5C07D60B10093074813460A46002136
:1094800000F0F5FF044803B05DF804EB00F08ABF7C
:1094900003B05DF804FB00BFB4D9032038B5C47D28
:1094A00005464CB90A4800F0F5FF044630B909F00A
:1094B00063F8084907F045F9204638BD0123EB75EC
:1094C00000231A464FF6FF712846FFF7D1FFF3E756
:1094D000B4D9032065600C002DE9F843384E336899
:1094E00005463BB90520FBF78CFC044608B100F0AB
:1094F00027FD34600121306800F0D2FE4FF4FA609D
:1095000008F012FA2F48002104F02AFC044630B972
:1095100009F032F82C4907F014F92C7034E0294F87
:10952000DFF8B880DFF8B8900026384604F031FE46
:1095300090B309F021F8414607F00DF901213846B2
:1095400004F0BAFC642008F0EFF966B109F014F8F1
:109550001E4907F0F6F8D321384604F0ADFC4FF46D
:10956000FA6008F0E1F90021384604F0A5FC044651
:1095700068B109F001F8164907F0E3F801232B70F0
:109580004FF47A7008F0D0F92046BDE8F88308F06F
:10959000F3FF494607F0D5F8013608F0EDFF0D4915
:1095A0003246FCF78BF84FF47A7008F0BDF9032EC1
:1095B000BBD108F0E1FF084907F0C3F80024ACE78D
:1095C000F0DA0320C0D9032084600C00C6600C00D0
:1095D000E0600C002A610C004F610C00B6600C00CA
:1095E00008610C0010B510210446064804F0FDFD8A
:1095F00020B108F0C1FF044907F0A3F8002323704D
:10960000012010BDC0D9032077610C0010B503788C
:1096100004460BB1FFF7E6FF642008F085F9237DCF
:109620000BB100232375642008F07EF9637D0BB134
:1096300000236375642008F077F9A37D0BB1002344
:10964000A375642008F070F9012010BD2DE9F041E8
:109650000B78B0B00546002B00F0F8807F4CDFF8A7
:1096600008827F4F7F4E002323704146384604F026
:1096700027FE3070002800F0ED802378C8200133E9
:10968000237008F051F93378002B00F0E380237841
:10969000092BEAD9744C7549684606F00CFE20681F
:1096A000FAF722FE02460B4604A8714906F0A2FF13
:1096B00004A908A806F04BFE6E4908A806F0E9FECA
:1096C00006466068FAF710FE02460B460CA8684989
:1096D00006F090FF0CA9304606F0CFFE654906F073
:1096E000D8FE0646A068FAF7FFFD02460B4610A812
:1096F0005F4906F07FFF10A9304606F0BEFE5D49C7
:1097000006F0C7FE0646E068FAF7EEFD02460B4695
:1097100014A8574906F06EFF14A9304606F0ADFEB6
:10972000544906F0B6FE06462069FAF7DDFD02460A
:109730000B4618A84E4906F05DFF18A9304606F002
:109740009CFE4C4906F0A5FE06466069FAF7CCFD82
:1097500002460B461CA8464906F04CFF1CA93046A1
:1097600006F08BFE434906F094FE0646A069FAF720
:10977000BBFD02460B4620A83D4906F03BFF20A951
:10978000304606F07AFE3B4906F083FE0646E06965
:10979000FAF7AAFD02460B4624A8354906F02AFF2F
:1097A00024A9304606F069FE324906F072FE0646EC
:1097B000206AFAF799FD02460B4628A82C4906F0C4
:1097C00019FF28A9304606F058FE2A4906F061FE26
:1097D0000646606AFAF788FD02460B462CA8244923
:1097E00006F008FF2CA9304606F047FE0146684601
:1097F00006F09EFD2CA806F013FD28A806F010FD2B
:1098000024A806F00DFD20A806F00AFD1CA806F00D
:1098100007FD18A806F004FD14A806F001FD10A825
:1098200006F0FEFC0CA806F0FBFC08A806F0F8FC0D
:1098300004A806F0F5FC6946284606F06EFD684669
:1098400006F0EEFC284630B0BDE8F0810A4906F08B
:1098500032FDF7E7002323701CE700BFB0D90320D7
:10986000C0D90320B1D90320C4DA0320AA610C00B7
:1098700034540C00244E0C0095610C0038B505469C
:10988000642008F051F809F001FF0146134801F087
:1098900081F9044608F070FE11492246FBF70EFFDD
:1098A0003CB908F069FE0F4906F04BFF2C752046C5
:1098B00038BD0A4800F0FCFE084800F0B4FE642001
:1098C00008F032F801232B750023C5E9063308F0B0
:1098D00053FE054906F035FFE9E700BF70DA0320C3
:1098E000AD610C00CA610C00DD610C000023037542
:1098F0000120704770B52DED028B0B7D84B00646BC
:109900000C464BB3294800F0D3FE2848F0EE408ABD
:1099100000F089FEF4EE408AF1EE10FAB0EE408AD3
:109920001AD60023A36118EE900AFAF7DDFC02466E
:109930000B4618EE100ACDE90223FAF7D5FCDDE953
:109940000223CDE900011A49304606F053FE3046A5
:1099500004B0BDEC028B70BD05F04AFDA36905465D
:1099600003B9A061E3694EF65F22EB1A934209D96D
:10997000104AE56113680133136000232375204604
:10998000FFF77CFFA2690C4BAA1A9A4209D90B492E
:109990000B48FEF7E3FB074A53680133536006F0B8
:1099A000D9FA0849304606F086FCD0E770DA032081
:1099B000F0610C000CF40320BF270900FA610C00D1
:1099C000D0DE0320A7610C0010B5044A0449044608
:1099D000D2E9002306F00EFE204610BD0CF4032051
:1099E0001E620C0010B500210446142009F076FD1B
:1099F0000120607510BD00234375012070470000F1
:109A000010B54B7D04464BB1142009F0A4FD0A2289
:109A10000146204606F0C8FC204610BD014906F06C
:109A20004AFCF9E7AA610C0038B5054608F0A4FD28
:109A3000424906F086FE0021102009F04FFD08F093
:109A40009BFD3F4906F066FE08F096FD0446102097
:109A500009F06EFD3B4A3C49002818BF11462046DC
:109A600006F06FFE394805F0BFFB642007F05CFF8D
:109A70000021364805F0BAFA044608F07DFD344965
:109A80002246FBF71BFEFF2C01D001342AD108F03F
:109A900073FD304906F055FE08F06EFD2E4906F0C4
:109AA00050FE08F069FD2D4906F04BFE08F064FDFC
:109AB0002B4906F046FE08F05FFD2A4906F02AFE13
:109AC00008F05AFD0446102009F032FD1D4A1E49D7
:109AD000002818BF11462046002406F032FEAC755F
